:020000040000fa
:080000000002040000000000f2
:020000040000fa
:040008008a03000067
:020000040000fa
:04000c008a03000063
:020000040000fa
:040010008a0300005f
:020000040000fa
:040014008a0300005b
:020000040000fa
:040018008a03000057
:020000040000fa
:04001c008a03000053
:020000040000fa
:040020008a0300004f
:020000040000fa
:040024008a0300004b
:020000040000fa
:040028008a03000047
:020000040000fa
:04002c008a03000043
:020000040000fa
:040030008a0300003f
:020000040000fa
:04003400280300009d
:020000040000fa
:040038008a03000037
:020000040000fa
:04003c008a03000033
:020000040000fa
:040040008a0300002f
:020000040000fa
:040044005e03000057
:020000040000fa
:040048008a03000027
:020000040000fa
:04004c008a03000023
:020000040000fa
:040050008a0300001f
:020000040000fa
:040054008a0300001b
:020000040000fa
:040058008a03000017
:020000040000fa
:04005c008a03000013
:020000040000fa
:040060008a0300000f
:020000040000fa
:040064008a0300000b
:020000040000fa
:040068008a03000007
:020000040000fa
:04006c008a03000003
:020000040000fa
:040070008a030000ff
:020000040000fa
:040074008a030000fb
:020000040000fa
:040078008a030000f7
:020000040000fa
:04007c008a030000f3
:020000040000fa
:040080008a030000ef
:020000040000fa
:040084008a030000eb
:020000040000fa
:040088008a030000e7
:020000040000fa
:04008c008a030000e3
:020000040000fa
:040090008a030000df
:020000040000fa
:040094008a030000db
:020000040000fa
:040098008a030000d7
:020000040000fa
:04009c008a030000d3
:020000040000fa
:0400a0008a030000cf
:020000040000fa
:0400a4008a030000cb
:020000040000fa
:0400a8008a030000c7
:020000040000fa
:0400ac008a030000c3
:020000040000fa
:0400b0008a030000bf
:020000040000fa
:0400b4008a030000bb
:020000040000fa
:0400b8008a030000b7
:020000040000fa
:0400bc008a030000b3
:020000040000fa
:0400c0008a030000af
:020000040000fa
:0400c4008a030000ab
:020000040000fa
:0400c8008a030000a7
:020000040000fa
:0400cc008a030000a3
:020000040000fa
:0400d0008a0300009f
:020000040000fa
:0400d4008a0300009b
:020000040000fa
:0400d8008a03000097
:020000040000fa
:0400dc008a03000093
:020000040000fa
:0400e0008a0300008f
:020000040000fa
:0400e4008a0300008b
:020000040000fa
:0400e8008a03000087
:020000040000fa
:0400ec008a03000083
:020000040000fa
:0400f0008a0300007f
:020000040000fa
:0400f4008a0300007b
:020000040000fa
:0400f8008a03000077
:020000040000fa
:0400fc008a03000073
:020000040000fa
:040100008a0300006e
:020000040000fa
:040104008a0300006a
:020000040000fa
:040108008a03000066
:020000040000fa
:04010c008a03000062
:020000040000fa
:040110008a0300005e
:020000040000fa
:040114008a0300005a
:020000040000fa
:040118008a03000056
:020000040000fa
:04011c008a03000052
:020000040000fa
:040120008a0300004e
:020000040000fa
:040124008a0300004a
:020000040000fa
:040128008a03000046
:020000040000fa
:04012c008a03000042
:020000040000fa
:040130008a0300003e
:020000040000fa
:040134008a0300003a
:020000040000fa
:040138008a03000036
:020000040000fa
:04013c008a03000032
:020000040000fa
:040140008a0300002e
:020000040000fa
:040144008a0300002a
:020000040000fa
:040148008a03000026
:020000040000fa
:04014c008a03000022
:020000040000fa
:040150008a0300001e
:020000040000fa
:040154008a0300001a
:020000040000fa
:040158008a03000016
:020000040000fa
:04015c008a03000012
:020000040000fa
:040160008a0300000e
:020000040000fa
:040164008a0300000a
:020000040000fa
:040168008a03000006
:020000040000fa
:04016c008a03000002
:020000040000fa
:040170008a030000fe
:020000040000fa
:040174008a030000fa
:020000040000fa
:040178008a030000f6
:020000040000fa
:04017c008a030000f2
:020000040000fa
:040180008a030000ee
:020000040000fa
:040184008a030000ea
:020000040000fa
:040188008a030000e6
:020000040000fa
:04018c008a030000e2
:020000040000fa
:040190008a030000de
:020000040000fa
:040194008a030000da
:020000040000fa
:040198008a030000d6
:020000040000fa
:04019c008a030000d2
:020000040000fa
:0401a0008a030000ce
:020000040000fa
:0401a4008a030000ca
:020000040000fa
:0401a8008a030000c6
:020000040000fa
:0401ac008a030000c2
:020000040000fa
:0401b0008a030000be
:020000040000fa
:0401b4008a030000ba
:020000040000fa
:0401b8008a030000b6
:020000040000fa
:0401bc008a030000b2
:020000040000fa
:0401c0008a030000ae
:020000040000fa
:0401c4008a030000aa
:020000040000fa
:0401c8008a030000a6
:020000040000fa
:0401cc008a030000a2
:020000040000fa
:0401d0008a0300009e
:020000040000fa
:0401d4008a0300009a
:020000040000fa
:0401d8008a03000096
:020000040000fa
:0401dc008a03000092
:020000040000fa
:0401e0008a0300008e
:020000040000fa
:0401e4008a0300008a
:020000040000fa
:0401e8008a03000086
:020000040000fa
:0401ec008a03000082
:020000040000fa
:0401f0008a0300007e
:020000040000fa
:0401f4008a0300007a
:020000040000fa
:0401f8008a03000076
:020000040000fa
:0401fc008a03000072
:020000040000fa
:040208008a03000065
:020000040000fa
:04020c008a03000061
:020000040000fa
:040210008a0300005d
:020000040000fa
:040214008a03000059
:020000040000fa
:040218008a03000055
:020000040000fa
:04021c008a03000051
:020000040000fa
:040220008a0300004d
:020000040000fa
:040224008a03000049
:020000040000fa
:040228008a03000045
:020000040000fa
:04022c008a03000041
:020000040000fa
:040230008a0300003d
:020000040000fa
:040234008a03000039
:020000040000fa
:040238008a03000035
:020000040000fa
:04023c008a03000031
:020000040000fa
:040240008a0300002d
:020000040000fa
:040244008a03000029
:020000040000fa
:040248008a03000025
:020000040000fa
:04024c008a03000021
:020000040000fa
:040250008a0300001d
:020000040000fa
:040254008a03000019
:020000040000fa
:040258008a03000015
:020000040000fa
:04025c008a03000011
:020000040000fa
:040260008a0300000d
:020000040000fa
:040264008a03000009
:020000040000fa
:040268008a03000005
:020000040000fa
:04026c008a03000001
:020000040000fa
:040270008a030000fd
:020000040000fa
:040274008a030000f9
:020000040000fa
:040278008a030000f5
:020000040000fa
:04027c008a030000f1
:020000040000fa
:040280008a030000ed
:020000040000fa
:040284008a030000e9
:020000040000fa
:040288008a030000e5
:020000040000fa
:04028c008a030000e1
:020000040000fa
:040290008a030000dd
:020000040000fa
:040294008a030000d9
:020000040000fa
:040298008a030000d5
:020000040000fa
:04029c008a030000d1
:020000040000fa
:0402a0008a030000cd
:020000040000fa
:0402a4008a030000c9
:020000040000fa
:0402a8008a030000c5
:020000040000fa
:0402ac008a030000c1
:020000040000fa
:0402b0008a030000bd
:020000040000fa
:0402b4008a030000b9
:020000040000fa
:0402b8008a030000b5
:020000040000fa
:0402bc008a030000b1
:020000040000fa
:0402c0008a030000ad
:020000040000fa
:0402c4008a030000a9
:020000040000fa
:0402c8008a030000a5
:020000040000fa
:0402cc008a030000a1
:020000040000fa
:0402d0008a0300009d
:020000040000fa
:0402d4008a03000099
:020000040000fa
:0402d8008a03000095
:020000040000fa
:0402dc008a03000091
:020000040000fa
:0402e0008a0300008d
:020000040000fa
:0402e4008a03000089
:020000040000fa
:0402e8008a03000085
:020000040000fa
:0402ec008a03000081
:020000040000fa
:0402f0008a0300007d
:020000040000fa
:0402f4008a03000079
:020000040000fa
:0402f8008a03000075
:020000040000fa
:0402fc008a03000071
:020000040000fa
:040300008a0300006c
:020000040000fa
:040304008a03000068
:020000040000fa
:040308008a03000064
:020000040000fa
:04030c008a03000060
:020000040000fa
:040310008a0300005c
:020000040000fa
:040314008a03000058
:020000040000fa
:040318008a03000054
:020000040000fa
:04031c008a03000050
:020000040000fa
:040320008a0300004c
:020000040000fa
:040324008a03000048
:020000040000fa
:040328008a03000044
:020000040000fa
:04032c008a03000040
:020000040000fa
:040330008a0300003c
:020000040000fa
:040334008a03000038
:020000040000fa
:040338008a03000034
:020000040000fa
:04033c008a03000030
:020000040000fa
:040340008a0300002c
:020000040000fa
:040344008a03000028
:020000040000fa
:040348008a03000024
:020000040000fa
:04034c008a03000020
:020000040000fa
:040350008a0300001c
:020000040000fa
:040354008a03000018
:020000040000fa
:040358008a03000014
:020000040000fa
:04035c008a03000010
:020000040000fa
:040360008a0300000c
:020000040000fa
:040364008a03000008
:020000040000fa
:040368008a03000004
:020000040000fa
:04036c008a03000000
:020000040000fa
:040370008a030000fc
:020000040000fa
:040374008a030000f8
:020000040000fa
:040378008a030000f4
:020000040000fa
:04037c008a030000f0
:020000040000fa
:040380008a030000ec
:020000040000fa
:040384008a030000e8
:020000040000fa
:040388008a030000e4
:020000040000fa
:04038c008a030000e0
:020000040000fa
:040390008a030000dc
:020000040000fa
:040394008a030000d8
:020000040000fa
:040398008a030000d4
:020000040000fa
:04039c008a030000d0
:020000040000fa
:0403a0008a030000cc
:020000040000fa
:0403a4008a030000c8
:020000040000fa
:0403a8008a030000c4
:020000040000fa
:0403ac008a030000c0
:020000040000fa
:0403b0008a030000bc
:020000040000fa
:0403b4008a030000b8
:020000040000fa
:0403b8008a030000b4
:020000040000fa
:0403bc008a030000b0
:020000040000fa
:0403c0008a030000ac
:020000040000fa
:0403c4008a030000a8
:020000040000fa
:0403c8008a030000a4
:020000040000fa
:0403cc008a030000a0
:020000040000fa
:0403d0008a0300009c
:020000040000fa
:0403d4008a03000098
:020000040000fa
:0403d8008a03000094
:020000040000fa
:0403dc008a03000090
:020000040000fa
:0403e0008a0300008c
:020000040000fa
:0403e4008a03000088
:020000040000fa
:0403e8008a03000084
:020000040000fa
:0403ec008a03000080
:020000040000fa
:0403f0008a0300007c
:020000040000fa
:0403f4008a03000078
:020000040000fa
:0403f8008a03000074
:020000040000fa
:0403fc008a03000070
:020000040000fa
:100400004fcb21000e7f22000e018800000000006b
:10041000000020000000e000020032000001200087
:100420002002880014000700bc0007000000e00064
:1004300003003a0000e42100010020000200370020
:100440000000200001002000810f70000100320038
:1004500014000700000020000000e000020032004d
:100460000000020000000000da1b02000000000093
:100470000040da000000fe004440a900c00920004e
:100480000000e000030032000020200090018800fe
:100490004440a800000006008a1f78008b1f7800e7
:1004a00000000600a1028800800478000000eb0034
:1004b0001f003700e284440054a0b4009905ba003c
:1004c000e284440054a0b4009906ba00e2844400d7
:1004d00054a0b4000006eb00476fde00fd07b20039
:1004e000ae018800636ce10003003a00eaff0700f8
:1004f0000000eb000e003700606ce10008003a00dd
:10050000004deb000a05e800020039003420ec0041
:100510000af0a0008b05e900f9ff3e000400370057
:100520006168e100010032000086eb000b0007006b
:1005300019c7ba001905ba000e04e00003003a001a
:100540000a00e000dbff3a0000000600fe07b200f0
:10055000ae0288008a047800f5ff37000cd0a300b3
:10056000e20f4d001c00390089027800354dba00b9
:100570000a05e800020039003420ec000af0a0006f
:100580008b05e9000f003200254dba000a05e8008e
:10059000020039003420ec000af0a0008b05e900cd
:1005a000080032000c00e0000600320015cdba0051
:1005b0000a05e800020039003420ec000af0a0002f
:1005c0008b05e9008984e80054a0b4000b00e0002a
:1005d000e2ff3a00000006009902ba00055d7800cb
:1005e0008b05e900f7ff3200c82ade00055d7800c0
:1005f0008b05e900f3ff32000c00e000f1ff320050
:1006000019ddba00eeff3700000000000000000016
:1006100000000000000000000000000000000000da
:1006200000000000000000000000000000000000ca
:1006300000000000000000000000000000000000ba
:1006400000000000000000000000000000000000aa
:100650003600f800809fbe00829fbe00849fbe00cf
:10066000869fbe003200f8003400f8001000200021
:10067000a001880000202000900188008460a9006b
:10068000fa080200000000000000e0000300320051
:100690005c1d020000000000000000003400f900b2
:1006a0003200f9004f03be004f02be004f01be00f2
:1006b0004f00be003600f900004006003600f8008a
:1006c000809fbe00829fbe00849fbe00869fbe00aa
:1006d0003200f8003400f80010002000a00188006b
:1006e0000020200090018800f81d0200000000009a
:1006f00084e0a9003400f9003200f9004f03be0085
:100700004f02be004f01be004f00be003600f90090
:10071000004006000040da000000fe000000050076
:10072000839f68000100e00002003d0060001000af
:10073000e08018000300e00002003d0060011100ad
:10074000e0811900050007004f00e00002003b00b7
:1007500060001000e0801800000006006022b80071
:10076000060220000000d0008180d2000482d20066
:100770008582d2000000a0000202520083825a004b
:10078000030031000202420083824a000000a100ff
:100790000603e900f3ff3a0000000600e687470081
:1007a0008e1f7800d0bf9f00e1bf9f000e00370072
:1007b0005fba970014407800efb997009340780033
:1007c0000201e900814f5000040032000080fb006c
:1007d0008180fb000100500006003700668757004b
:1007e000041fe800030fe8000200e000f0ff3a00f9
:1007f0000000eb004f0778006f00b100000006001a
:100800008001780002003700b15978000201e90048
:100810000200e000fcff3a000000060080017800c2
:1008200002003700815978000201e9000200e0006f
:08083000fcff3a000000060085
:020000040000fa
:10083800514300006f6e0000734200003100000059
:1008480051500000726f0000644200003200000046
:10085800514300006f6e0000734200003300000037
:1008680051500000726f0000644200003400000024
:1008780051500000726f0000644200003500000013
:10088800514300006f6e0000734200003600000004
:1008980011110000222200003333000044440000fc
:1008a80055550000666600007777000088880000cc
:1008b80099990000aaaa0000bbbb0000cccc00009c
:1008c800dddd0000eeee0000cecd0000acab000098
:1008d80074610000736b0000315f000074610000f8
:1008e800736b000000740000617300006b3200003d
:1008f8005f740000617300006b00000073740000f7
:100908006172000074000000494400004c4500007a
:1009180000a50000a5a50000a5a50000a5a500004c
:10092800a5a50000a5a50000a5a50000a5a5000097
:10093800a5a50000a5a50000a500000042540000e0
:100948006573000074310000004200005465000027
:100958007374000032000000496e0000744d0000fe
:0809680061740000680000004a
:020000040000fa
:1009700080007800d10190000000eb0042c7210008
:10098000828f510008003a00a1089000a2c6210001
:10099000828f50000400320001f0a7008100ea00bd
:1009a0000100e9004f00de0000000600604080000a
:1009b0001000e00002003a000ea8ef00050037002a
:1009c00060408000300090003000900010009000e7
:1009d0007040880000000600889fbe008a1f7800d3
:1009e0000004780001057800494080000088ec0090
:1009f000de1c020000000000e10f440008003a0085
:100a00000a00e00006003200014080008180e8001a
:100a100040c72100a41c02000000000014003700a1
:100a2000090444000040800018009800888f54009a
:100a30000600360001408000504080008180e800c0
:100a4000b81c0200000000000900370001408000cf
:100a5000604080008180e800b81c020000000000b7
:100a600070408000880f50000100360078408800f8
:100a70004f0578004f04be0000000600881f780074
:100a80000004780048089000ea1d02000000000001
:100a900008007800ea1d0200000000004f04780002
:100aa00000000600881f78001a08e2000f003200dc
:100ab0004e1b02000000000020e480003004900083
:100ac0000880e800de1c0200000000001428ed0091
:100ad0001a28ed005e1b02000000000008007800ec
:100ae000e6ff07001a08e200f1ff3a004f04780021
:100af00000000600881f780028c42100e9ff0700d5
:100b000010002000980f1000030036005c1d02004a
:100b10000000000000000000f41b020000000000c4
:100b2000f6ff3700e4874700889fbe008a9fbe001b
:100b30008c9fbe008e1f780080bf9f00010578004b
:100b40000407780085067800060678000704780018
:100b5000820478000981440048089000510a20006e
:100b60000e04020000000000c80d90008904d000af
:100b70008984e90089844500790c98001a4078003e
:100b8000205c98001a04e000070032007a0044005c
:100b9000e30045005a6878001a04e00002003200c1
:100ba000810f5500fbff3a000040eb00505c9800bd
:100bb0008d047800e38f54000100360039002000d6
:100bc000390c98000880e8009e1c0200000000001c
:100bd0006c0044009e1c02000000000048049800c5
:100be000e484140069049800180c98006000b800b0
:100bf00000149800111498000040eb004064980025
:100c00000e0178008fb897000b007800c61a02001a
:100c100000000000000c78000c00e0000100320031
:100c2000080e78004f0778004f06be004f05be0043
:100c30004f04be004f00b10000000600889fbe00b8
:100c40000004eb0029c421006a40b9000080440080
:100c50008e1c0200000000000804e800e40f5400ad
:100c6000f9ff3a0080c821008e1c0200000000003d
:100c700020c921008e1c020000000000a0c6210037
:100c80008e1c020000000000e0c721008e1c020044
:100c90000000000040c721008e1c02000000000080
:100ca00080c821006040880020c921005040880091
:100cb0004f04be0000000600881f78000004780082
:100cc0004e1b0200000000001428ec000008e200a7
:100cd00006003a0008408800a0408000e10f500064
:100ce0000a003a00d5ff0700080037001608e200a6
:100cf00006003a0000408000b008900038089000dc
:100d0000808f500001003e00084088001c28ec0045
:100d1000380890000408e3000100310020408800fa
:100d20008880e8006a01b90020c421000200400068
:100d3000a41c0200000000005e1b02000000000076
:100d40001608e2000800320000408000b008900061
:100d500038089000808f5000030031005c1d0200b5
:100d600000000000000000004f04780000000600b2
:100d7000889fbe008a9fbe008c9fbe008e1f780099
:100d80000007780081067800820478000306780066
:100d9000840578000505780060022000b01d02007f
:100da00000000000000478000080eb000800e00074
:100db0000a00320009804400b01d0200000000005b
:100dc000400c98000000e00009003a00080078009c
:100dd000ea1d0200000000000080eb004f077800d1
:100de0004f06be004f05be004f04be0000000600c7
:100df0006149b800801feb00880378000a0378007f
:100e00008b0278000c0278008d0078000e007800cc
:100e100044ff070008007800a7ff07008f87e9005c
:100e200010002000edff3700889fbe00000478000e
:100e30004e1b0200000000000800e00001003a0024
:100e4000084080008884e80009007800de1c020069
:100e500000000000280890000000e00003003200bd
:100e60006c004400de1c0200000000001c28ec00a6
:100e700000408000880f500006003a00890078008a
:100e8000e0c72100a41c0200000000001a28ec00aa
:100e9000040037001428ed0008007800f7fe070072
:100ea000c2fe07005e1b0200000000001608e20000
:100eb0000600320000408000880f500003003a0016
:100ec0005c1d020000000000000000004f04be0096
:100ed00000000600889fbe008a1f78000004be0044
:100ee000e38f540001003600390020004e1b020041
:100ef000000000000800e00001003a000840800007
:100f000038089000890f5000310032000b0031008a
:100f10000005eb0001408000888f50000d0032007a
:100f2000014080001a002000b1089000898f500015
:100f3000080036000005eb00060037000140800085
:100f4000088568000af0a7000a05ea000a05e9001a
:100f50004f55de00390c9800e80090000100e000d9
:100f600002003500e4841400690498006a00b900a6
:100f700022c4210000004100d8009000808f500062
:100f80000e003a008884e80009007800de1c0200a8
:100f900000000000380890000408e3000100310060
:100fa000204088006a00b90022c4210000004100ee
:100fb00089007800a41c0200000000000a00e00084
:100fc000030032005c1d0200000000000000000071
:100fd0005e1b0200000000004f0578004f04be00b9
:100fe00000000600889fbe000004780000408000da
:100ff000880f5000200032000800e0001e00320080
:101000004e1b0200000000000800780058fe070098
:101010000000e000160032008884e8000900780033
:10102000de1c020000000000380890000408e30005
:1010300001003100204088006a00b90022c421006c
:101040000000410089007800a41c0200000000009c
:1010500000408000b808900030089000808f500059
:10106000030039005c1d02000000000000000000c9
:101070005e1b0200000000004f04be0000000600de
:10108000889fbe008a1f780000047800080078005e
:1010900037fe07008004eb000000e0001d00320076
:1010a0000208e20016003a0000408000190020000b
:1010b000b808900030089000808f50000100310087
:1010c0008004eb000885e8000a007800de1c0200be
:1010d00000000000380890000408e300010031001f
:1010e000204088006a00b90022c4210000004100ad
:1010f0008a007800a41c02000000000005003700f0
:10110000ec004400a0c62100a41c02000000000066
:101110008004eb00090078004f0578004f04be0002
:1011200000000600858120000002eb008001eb003a
:101130003207200081482800a05720000cff07003c
:10114000e10f50000c003a00f0f12f004200b60011
:101150000050a00010028800000000000000000005
:101160000ea8ef0010002000b04088000828ef0013
:10117000201b02000000000000000600f0f12f001c
:101180004200b6000050a0001002880000000000dd
:10119000000000001628ef00021b02000000000003
:1011a000000006000228ec0000000600881f7800fe
:1011b0004e1b020000000000484080005e1b020041
:1011c00000000000080078004f04780000000600ce
:1011d0004040800000000600a040800000000600a3
:1011e0000000e00001003a00004080007a0040006a
:1011f00000000600889fbe008a9fbe008c9fbe0034
:101200000208e20041003a004b4080008b05e800f4
:101210004b40880006003a00604080000a08f80051
:101220000c08f900504088001028ec00dffd070092
:101230000005eb00704080008b0f5000030036006b
:101240002a0037000d057800020037002cc4210069
:101250001d002000604080001000e00002003a0005
:101260000ea8ef00210037006040800030009000a1
:101270003004900018009000808f5500020031006b
:1012800070408800190037008884e8000900780061
:10129000de1c020000000000280890000000e000b2
:1012a000030032006c004400de1c0200000000005d
:1012b000380890000408e300010031002040880055
:1012c0006a00b9000000460089007800a41c0200f2
:1012d0000000000000408000b80890003008900036
:1012e000808f5000d7ff3100daff370000408000c8
:1012f000300890006a00b90022c421006200780022
:10130000e10f500004003e00040037001228ec00fa
:101310000005eb00010037001a0020000608e2007b
:10132000010032001a0020000a0078004f06be00bb
:101330004f05be004f04be0000000600889fbe009f
:101340008a9fbe004e1b0200000000000228ed0034
:101350000004eb000208e20036003a001408e20044
:101360001b003a003300370080e380003004900017
:101370006c004400de1c0200000000008884e800cd
:1013800009007800de1c0200000000003808900010
:101390000408e30001003100204088006a00b90021
:1013a0000080450089007800a41c020000000000b5
:1013b00000408000b808900030089000808f5000f6
:1013c000050039001000200030408800020037007e
:1013d000aac621002bc421001a00e000e2ff3a0057
:1013e0000800e0000100320070fd07009840800016
:1013f0000800e00008003200190020007dff07000f
:101400000000e00001003200394088000804e900d3
:10141000faff3a001228ef000004eb000608e20091
:10142000040032005c1d020000000000000000000b
:10143000180020005e1b0200000000000800780079
:101440004f05be004f04be0000000600881f780054
:10145000000478000800e0000700320051ff070098
:101460008000eb00080078005bfd0700b3ff070079
:101470000000e00003003a005c1d020000000000d4
:10148000000000004f04780000000600889fbe00a6
:101490000004be0043ff0700404080009800780031
:1014a00081844400810f500006003100898f500074
:1014b00015003600090c7800890f50000900310032
:1014c00005003700898f50000d003e00890f500045
:1014d0000b0039000c003700008054008000eb0046
:1014e0003dfd070095ff07000000e00008003a00fe
:1014f0005c1d020000000000000000000400370036
:10150000090c7800f4ff3700090c7800f5ff37006c
:101510004f04be00000006000208e2000300320093
:101520001000200030408800310037000628ef000e
:1015300000408000700890007400500042012000bc
:10154000d1482800ce030200000000000000e000a7
:10155000050032000140800000408000fa80400019
:10156000f61b020000000000204080006a01b90064
:1015700021c42100e10079000100e00006003a00ea
:1015800024c421000000e9006a01b900e4007900e8
:101590000100e000fbff32006a01b9008281e8002f
:1015a00021c42100e1817900930190000282400072
:1015b000130298006401410081004100818f5100b5
:1015c00004003a006a02b90041c42100930190006e
:1015d00083307a006a01b9008280e80022c42100c9
:1015e000e2807800b100900001408800204088002f
:1015f00000000600889fbe00000478004e1b020019
:10160000000000000800e00001003a0008408000ef
:101610008884e80009007800de1c02000000000059
:10162000280890000000e000030032006c00440035
:10163000de1c0200000000008900780040c7210085
:10164000a41c02000000000048609000e14f500020
:1016500002003a000040eb00406498005e1b02006c
:10166000000000001608e200050032004e1b0200d8
:1016700000000000cdfc07005e1b0200000000001f
:1016800000408000880f50000c003a001608e2006d
:10169000040032005c1d0200000000000000000099
:1016a00006003700a0e380001408e30002003a00bf
:1016b0000028ef000100370097ff07004f04be002d
:1016c00000000600881f78000104780001408000b7
:1016d000ec804000b81c0200000000001100200057
:1016e00008007800bcfc07004f04780000000600ea
:1016f000881f7800020478000240800001f0a000fa
:101700006101980001408000ec804000a41c0200b0
:10171000000000001100200008007800aefc070067
:101720004f04780000000600889fbe003000900043
:10173000b00490006c84440008007800de1c0200b5
:10174000000000000208e2000f003a000984e800ef
:1017500008007800de1c020000000000390890003c
:101760000408e30001003100204088006a00b9004d
:1017700022c421000000410088007800a41c02005f
:10178000000000000400370088007800a0c6210097
:10179000a41c0200000000000040800039099000f5
:1017a000b00890000000eb00810f510002003600ed
:1017b00010002000304088004f04be0000000600ea
:1017c000889fbe0001f0a00001087800300490005e
:1017d000de1c0200000000008884e8000900780098
:1017e000de1c020000000000380890000408e3003e
:1017f00001003100204088006a00b90022c42100a5
:101800000000410089007800a41c020000000000d4
:1018100000408000b808900030089000808f500091
:101820000200360010002000304088004f04be0047
:1018300000000600881f7800000478004e1b02009c
:101840000000000080408000000c780040408000d4
:10185000100498005e1b0200000000004f04780096
:1018600000000600814080000108780041408000af
:101870001100980000000600889fbe008a1f7800b3
:1018800080047800010578004e1b02000000000073
:1018900042408000990090001a0078000004eb009c
:1018a000e10f40001100320099017800844080006f
:1018b000830f52000300320018002000810f5100f6
:1018c0000a00310081005100808f50000500310076
:1018d000010d500009007800e2ff07000004eb0052
:1018e00002003700000deb00180020005e1b020014
:1018f00000000000080078004f0578004f04be008b
:1019000000000600100020003040880000000600a3
:101910000040800060009000014080000240800094
:101920003209900064011100e200980000000600f6
:10193000889fbe008a1f78000005780001047800a7
:101940004e1b02000000000000408000901090003c
:1019500000109000e00f5000e08f58000b003a009c
:101960000040800011c0b300416098000800e00012
:1019700006003200110020000800780016fc070065
:101980005c1d020000000000000000005e1b020061
:10199000000000004e1b020000000000004080001c
:1019a0000014900090149000e00f5400e08f5c0051
:1019b0000c0032000a00e000050032000040800008
:1019c0006011b8000210980013109800050037004d
:1019d0000040800061015400e0815c00021098002a
:1019e00013109800004080008040eb004160980098
:1019f0005e1b0200000000000800be004f057800da
:101a00004f04be0000000600889fbe008a9fbe00f3
:101a10008c9fbe000004be000205be000406be008e
:101a20004e1b02000000000000408000406090005b
:101a3000e24f50001a003200044080000410900071
:101a4000941090000884ea008984ea00880260000b
:101a5000098160008001eb00c010dd000000200063
:101a60006129b800020070008380700000129800a5
:101a7000111298000040800011c0b300416098002e
:101a80000d00e00006003200110020000d0078007b
:101a9000d1fb07005c1d02000000000000000000f8
:101aa0005e1b0200000000004e1b02000000000050
:101ab0000c00e000040032000040800000119000a3
:101ac00090119000028ebe000040800040609000a7
:101ad0000004eb00e24f500010003a000440800088
:101ae00004109000941090000a85ea008b85ea00ab
:101af0008a0260000b8160008001eb00c010dd00f5
:101b0000000020006129b80002007000838070008e
:101b10000012980011129800180020000040800068
:101b20008040eb00416098005e1b02000000000056
:101b3000080078004f06be004f05be004f04be00ef
:101b400000000600889fbe008a9fbe008c1f7800a0
:101b5000800478000205be000106780004047800c5
:101b60004e1b0200000000000800e00003003200ed
:101b70000910900099109000008cbe004960900000
:101b800021c0b300c1649800e20f5600100032007b
:101b900003003e00e10f56001c003a00050037002c
:101ba000e30f560011003200e40f560017003a0010
:101bb000110037000911900099119000020575007d
:101bc000838575008a1498009b1498000f003700d5
:101bd000091190009911900061014100e0814900d4
:101be0008214980093149800080037008a14980013
:101bf0009b149800050037000004eb00e24f5000f2
:101c00001c0032008a1498009b14980018002000d1
:101c1000e14f500017003a000984e80008007800fe
:101c2000de1c020000000000390890000408e300f8
:101c300001003100204088006a00b90022c4210060
:101c40000000410088007800a41c02000000000091
:101c500000408000b9089000300890001800200073
:101c6000808f5000030036005c1d02000000000061
:101c7000000000005e1b0200000000000800780069
:101c80004f0678004f05be004f04be00000006005e
:101c9000889fbe008a1f78000004780085047800c1
:101ca0000400e00003003200081390009813900035
:101cb000068abe004862900020c0b30040649800cd
:101cc000e28f50001000320003003e00e18f500010
:101cd0001c003a0005003700e38f5000110032006d
:101ce000e48f500017003a001100370008109000f0
:101cf0009810900000017100818171000214980019
:101d0000131498000f0037000810900098109000ee
:101d100061004000e0804800001498001114980011
:101d200008003700021498001314980005003700cb
:101d30000000eb00e24f5200250032000214980030
:101d40001314980010002000e14f520020003a00c8
:101d50000208e2000f003a000885e8000a00780057
:101d6000de1c020000000000380890000408e300b8
:101d700001003100204088006a00b90022c421001f
:101d8000000041008a007800a41c0200000000004e
:101d900004003700ec004400a0c62100a41c02008f
:101da000000000000040800038099000b00890005a
:101db00010002000810f5100050036000900e000ee
:101dc00001003200800c78001000200030408800b4
:101dd0004f0578004f04be0000000600889fbe003b
:101de0008a1f78000004be004860900021c0b30044
:101df0004164980008119000981190006101410021
:101e0000e08149000214980013149800e14f50003b
:101e100020003a000208e2000f003a000885e800be
:101e20000a007800de1c0200000000003808900064
:101e30000408e30001003100204088006a00b90076
:101e400022c42100000041008a007800a41c020086
:101e50000000000004003700ec004400a0c6210090
:101e6000a41c02000000000000408000b8089000a0
:101e700030089000808f5000060036000900e00016
:101e80000200320010002000800c780010002000ba
:101e9000304088004f0578004f04be000000060067
:101ea000889fbe000000e00002003a000940800068
:101eb00001003700800478004e1b02000000000083
:101ec000496090000004eb00e24f500003003a002c
:101ed0000040eb00c0649800180020005e1b020068
:101ee00000000000080078004f04be00000006005b
:101ef000881f7800000478004e1b020000000000dc
:101f0000680c90005e1b02000000000008f0a700b3
:101f10000804ea000800e9004f00de004f047800e2
:101f200000000600881f7800000478004e1b0200a5
:101f300000000000e8089000780890000084680025
:101f400008f0a7000804ea000804e9004f44de0096
:101f50005e1b020000000000080078004f047800bb
:101f60000000060081017800001190000200e000ee
:101f70000c003200b00090008280400031009800d8
:101f800020029000848f50000200390090007800f9
:101f900031009800b00090000300780000040200b7
:101fa0000000000000000600889fbe008a1f780025
:101fb0000004780002057800e80c900008119000f9
:101fc0000200e000210032000a00e0000d003a00ab
:101fd000180090000004020000000000980090002b
:101fe000081090000080400010049800a8009000a5
:101ff000810f500015003900180078001004980077
:1020000012003700380090000004020000000000b9
:10201000881090008100ea00380090000100400024
:1020200030049800980f5000030031002800900001
:102030008100400031049800e20f550003003a008f
:102040000900e000010032008904e9008904e80089
:10205000690c98000000eb004f0578004f04be00ab
:1020600000000600889fbe008a1f78008004780068
:102070004e1b020000000000396490000804e000dc
:1020800013003400190890000000e00005003a0039
:102090000f003700190890000000e00002003a002d
:1020a0000b003700728544000a007800940b020090
:1020b000000000000000e00002003200820c02007c
:1020c000000000000844e9004240a900f1ff3c0084
:1020d00000c0eb00b06498005e1b0200000000002e
:1020e0004e1b020000000000296490000804e0007c
:1020f00013003400490090000000e00005003a00a1
:102100000f003700490090000000e00002003a0094
:102110000b003700688544000a007800940b020029
:10212000000000000000e00002003200820c02000b
:10213000000000000844e9004240a900f1ff3c0013
:1021400000c0eb00a06498005e1b020000000000cd
:102150004f0578004f04be0000000600889fbe00b7
:102160000004be004e1b02000000000018007800b2
:102170007809900088109000028ab900840140001c
:10218000230498008001eb00630c98001004980071
:102190000201e9000191b900820040003104980079
:1021a00000c0eb0020649800306498000900e00053
:1021b0000c003a00480090000000e0000f003200e0
:1021c00068004400940b0200000000000000e000e2
:1021d0000a0032005c1d0200000000000000000048
:1021e00006003700680044008e1c0200000000005a
:1021f000720044008e1c0200000000005e1b020002
:1022000000000000100020004f04be000000060087
:102210000100e00002003a00040a780001003700e3
:10222000020a7800700a980001129800110020003c
:1022300004007800c9ff070000000600889fbe0068
:102240008a9fbe00000578008104780082457800ee
:102250000000eb000900e000010032000ac8b900ec
:102260004002b000b01d0200000000000004780031
:102270000800e0000700320042022000080141008f
:10228000080278008b417800890078000a00780005
:10229000dfff0700080078004f05be004f04be00b6
:1022a000000006000600fa00889fbe008a9fbe005c
:1022b0008c1f78000004780001067800a2bf9f0000
:1022c000030578008004eb00e80544004e1b020083
:1022d00000000000e808900078089000808f50000f
:1022e00002003900e20f550019003a000a01780097
:1022f0008c007800080078002bff070098089000f9
:102300000100e0000900320072004400940b02005a
:10231000000000000000e000090032005c1d020027
:102320000000000000000000050037000000e00091
:10233000030032005c1d02000000000000000000ed
:102340005e1b02000000000010002000410037006a
:102350002fb897000000e00004003a005e1b020066
:10236000000000000000eb003a0037000900e00028
:1023700004003a0070805700320c02000000000098
:10238000190020005e1b020000000000d2080200bd
:10239000000000004e1b02000000000028609000ba
:1023a000e14f400002003a000040eb00206498003a
:1023b00038609000e14f400002003a000040eb001e
:1023c000306498005e1b020000000000ec805700a3
:1023d000708057003c0c0200000000000000e0008c
:1023e00017003a0008007800cefe07000000e00069
:1023f0000e003200afb897000b007800620b0200ad
:10240000000000000800780016ff07009e09020087
:10241000000000000000e000acff3a005c1d02007c
:102420000000000000000000a8ff3700080078004e
:102430000cff07009e09020000000000a3ff370008
:102440000800780007ff07009e0902000000000056
:102450000000eb004f0678004f05be004f04be00a1
:102460000080fa0000000600889fbe008a1f7800e6
:1024700080047800020578006909900079089000ce
:10248000800f5100030039000000eb00e28f510083
:1024900018003a00396490000301780009007800c0
:1024a000c1fe0700e14f44000f003a009908900078
:1024b000100020000100e0000e0032007280440095
:1024c000940b020000000000800078001000200043
:1024d0000100e000070032000a00e00005003200c1
:1024e000000d7800030037000844e800b864980045
:1024f000100020004f0578004f04be0000000600c9
:10250000881f78000104780060099000f0099000ad
:102510008000eb00830f510016003100b060900086
:102520000201e80062089800e1cf40000e003a0086
:1025300010099000110020000200e0000d003200a0
:1025400072004000940b0200000000001100200007
:102550000000e000070032000800e0000500320043
:10256000010c7800030037008140e80031609800da
:1025700011002000010078004f04780000000600e0
:102580000600fa00889fbe008a9fbe008c1f78005c
:102590000004780001067800a2bf9f000005eb0050
:1025a000f20544004e1b020000000000e80c900001
:1025b0000900e000140032008c0078000800780068
:1025c00068fe07008904e900690c98004800900043
:1025d0000000e0000800320068004400940b020094
:1025e000000000000000e000030032005c1d02005b
:1025f00000000000000000005e1b02000000000060
:1026000010002000450037002fb897000000e000c0
:1026100004003a005e1b0200000000000000eb0016
:102620003e0037000a00e00004003a0070805700c6
:10263000320c0200000000001a0020005e1b0200a5
:1026400000000000d2080200000000004e1b020043
:102650000000000028609000e14f400002003a00b6
:102660000040eb002064980038609000e14f40008b
:1026700002003a000040eb00306498005e1b02004c
:1026800000000000ec805700708057003c0c0200f6
:10269000000000000000e00017003a000800780089
:1026a00013fe07000000e0000e003200afb89700f4
:1026b0000b007800620b02000000000008007800a8
:1026c00068fe07009e090200000000000000e00014
:1026d000b4ff3a005c1d0200000000000000000092
:1026e000b0ff3700080078005efe07009e09020078
:1026f00000000000abff37000800780059fe07001b
:102700009e0902000000000008007800f8fd0700a4
:102710000000e000a3ff32000000eb004f0678004d
:102720004f05be004f04be000080fa000000060006
:102730000600fa00889fbe008a1f78000004780017
:10274000c1bf9f008004eb00720544004e1b0200d5
:1027500000000000680890000000e0001100320056
:102760000000e900600c9800480090000000e000c4
:102770000800320068004400940b020000000000d2
:102780000000e000030032005c1d020000000000b9
:10279000000000005e1b020000000000100020008e
:1027a000450037004fb897000000e00004003a00f1
:1027b0005e1b0200000000000000eb003e0037003e
:1027c0000900e00004003a006c805700320c02005f
:1027d00000000000190020005e1b02000000000045
:1027e000d2080200000000004e1b020000000000a2
:1027f00028609000e14f400002003a000040eb00ea
:102800002064980038609000e14f400002003a00d8
:102810000040eb00306498005e1b020000000000e6
:10282000e88057006c8057003c0c0200000000005c
:102830000000e00017003a0008007800acfd070037
:102840000000e0000e003200cfb897000a007800c8
:10285000620b0200000000000800780001fe070083
:102860009e090200000000000000e000b7ff3a00ef
:102870005c1d02000000000000000000b3ff3700f4
:1028800008007800f7fd07009e0902000000000024
:10289000aeff370008007800f2fd07009e09020035
:1028a000000000000800780091fd07000000e00033
:1028b000a6ff32000000eb004f0578004f04be0079
:1028c0000080fa00000006000600fa00889fbe00a3
:1028d0008a9fbe000004780081057800b2bf9f0087
:1028e0008004eb00720544004e1b02000000000053
:1028f000680890000000e00014003200b804900066
:102900008b0078000800780096fd070039049800d5
:10291000180890000000e000080032007200440037
:10292000940b0200000000000000e00003003200f1
:102930005c1d020000000000000000005e1b0200a1
:102940000000000010002000450037003fb897004d
:102950000000e00004003a005e1b020000000000de
:102960000000eb003e0037000900e00004003a00e0
:102970006e805700320c0200000000001900200099
:102980005e1b020000000000d208020000000000f0
:102990004e1b02000000000028609000e14f400044
:1029a00002003a000040eb0020649800386090007c
:1029b000e14f400002003a000040eb003064980014
:1029c0005e1b020000000000ea8057006e80570086
:1029d0003c0c0200000000000000e00017003a007c
:1029e0000800780042fd07000000e0000e00320001
:1029f000bfb897000a007800620b020000000000d8
:102a00000800780097fd07009e0902000000000002
:102a10000000e000b4ff3a005c1d0200000000006e
:102a200000000000b0ff3700080078008dfd0700af
:102a30009e09020000000000abff3700080078008c
:102a400088fd07009e0902000000000008007800d1
:102a500027fd07000000e000a3ff32000000eb00ac
:102a60004f05be004f04be000080fa0000000600c3
:102a7000889fbe008a9fbe0000047800820578000f
:102a8000e80c90000000eb000900e00019003200a3
:102a9000286590000800780032fd07008904e900ed
:102aa000690c9800e14f45000f003a00c800900003
:102ab000100020000100e0000e0032006800440019
:102ac000940b02000000000080007800100020003d
:102ad0000100e000070032000b00e00005003200ba
:102ae000800d7800030037000a45e8002a6498004a
:102af000100020004f05be004f04be00000006007d
:102b0000889fbe0000047800680990000000eb0078
:102b10000200e00005003200b804900008007800d0
:102b200010fd070039049800100020004f04be007b
:102b300000000600881f7800000478004e1b020089
:102b400000000000680c90005e1b02000000000006
:102b5000080078004f04780000000600889fbe003f
:102b6000800478004e1b02000000000069089000fd
:102b7000790c9000000454005e1b0200000000006d
:102b8000080078004f04be000000060060089000b6
:102b900000000600ea1d0200000000000000060020
:102ba0006008900000f0a7000000ea000000e900c3
:102bb0004f00de0000000600e00890007008900062
:102bc0000080680000f0a7000000ea000000e900b3
:102bd0004f00de00000006000200fa00889fbe00e1
:102be0008a1f780058052000ea0a20000000eb0048
:102bf000fa0a020000000000d608020000000000ef
:102c0000800478000000eb00c0bf9f00684188008e
:102c10008001eb00f20a2000e8805700404180006c
:102c200052110200000000000000e000020032002b
:102c30001000200010418800d608020000000000ab
:102c4000890450008a8f540002003e0010002000ca
:102c500010418800e00b2000808f540002003600f5
:102c60001000200010418800684188000000eb003f
:102c7000fa0a020000000000d6080200000000006e
:102c80008004780068418800f20a2000e88057003c
:102c900040418000c0120200000000000000e0007f
:102ca000020032001000200010418800d608020007
:102cb00000000000890450008a8f540002003e008a
:102cc0001000200010418800e00b2000808f54008d
:102cd0000200360010002000104188006841880082
:102ce0002028ec00c1ff37000200fa00889fbe00d8
:102cf0008a9fbe00210020000000eb006a0702004e
:102d000000000000d6080200000000000004780067
:102d1000f00a2000260a020000000000d608020087
:102d20000000000008045000610b2000810f5400d7
:102d3000020036001000200010418800d608020072
:102d40000000000080047800b9bf9f000004eb0081
:102d50006a0b20007b172000b10420006a80570016
:102d6000460a020000000000d60802000000000031
:102d700009005000080050008a0f50000200360081
:102d800010002000104188001e28ec00b804b0009c
:102d90008b0f5400f0ff3a00110020000000eb0000
:102da0006a070200000000004f05be004f04be008d
:102db0000080fa00000006000400fa00889fbe00b0
:102dc0008a9fbe008c1f780059052000c6ff0700af
:102dd0000000eb0090bf9f000004eb00ab00200060
:102de000085cdd00d6080200000000000005780045
:102df00008017800ec80570040418000c0120200ba
:102e0000000000000000e00002003200100020007e
:102e100010418800d6080200000000000a0550009a
:102e20008a0f540002003600100020001041880074
:102e30006f044400880f5500020036001000200087
:102e4000104188009fb897000104e80098bf9f00d8
:102e5000e40f5400e2ff34000000eb0090bf9f003d
:102e60000004eb001a0020008801780008017800b7
:102e7000ee80570040418000521102000000000027
:102e8000e10f5000010032001a4188009fb89700fe
:102e90000100e80090bf9f00e40f5000f2ff3400f3
:102ea0000000eb0090bf9f000004eb00ac0020008e
:102eb0001b0020000864dd00d608020000000000ae
:102ec000000578008001eb0008017800ee805700d3
:102ed0004041800052110200000000000000e000ac
:102ee000010032001b418800d608020000000000eb
:102ef0000a0550008a0f5400010036001b4188006b
:102f00006f044400880f5500010036001b41880003
:102f10009fb897000104e80098bf9f00e40f540099
:102f2000e4ff34002c28ef0050418000f20702003b
:102f30000000000060418000890f5000070032004f
:102f40004801200008007800260a02000000000066
:102f500061418000898f5000faff3a004001200053
:102f6000260a0200000000002c28ef000000eb0001
:102f700090bf9f000001eb00ec80570040418000b3
:102f8000c012020000000000e10f500002003200f9
:102f900010002000104188006011b800ee8057003a
:102fa000404180005211020000000000e10f50007b
:102fb00002003200100020001041880061418000b2
:102fc000898f500002003a00100020001041880054
:102fd00031002000504180006a070200000000001c
:102fe00060418000890f500002003a00100020006c
:102ff000104188008000eb00504180006a07020009
:10300000000000009fb897000100e80090bf9f00fb
:10301000e40f5000d7ff340060418000890f50005a
:10302000070032004801200008007800260a02004c
:103030000000000061418000898f5000faff3a00d3
:1030400040012000260a0200000000002c28ef00aa
:103050000000eb0090bf9f00180020000001eb0073
:10306000ec80570040418000c012020000000000c8
:10307000e10f500001003200184188009fb897000e
:103080000100e80090bf9f00e40f5000f3ff340000
:1030900050418000f2070200000000006041800003
:1030a000890f500007003200480120000800780016
:1030b000260a02000000000061418000898f500054
:1030c000faff3a0040012000260a0200000000003a
:1030d0002c28ef000000eb0090bf9f006011b800ab
:1030e000ee805700404180005211020000000000b5
:1030f000e10f500002003200100020001041880053
:103100000001eb00ec80570040418000c01202003b
:1031100000000000e10f500002003200100020000b
:103120001041880061418000898f500002003a0000
:103130001000200010418800310020005041800024
:103140006a0702000000000060418000890f500003
:1031500002003a0010002000104188008000eb00bf
:10316000504180006a070200000000009fb89700ed
:103170000100e80090bf9f00e40f5000d7ff34002b
:1031800060418000890f5000070032004801200094
:1031900008007800260a020000000000614180005b
:1031a000898f5000faff3a0040012000260a0200f1
:1031b000000000001e28ec0004ff37000041eb0077
:1031c00021002000500020001e110200000000001d
:1031d000404188000000e000100032008002eb0057
:1031e000140020008001eb0032072000214a280053
:1031f000c06d2100b806020000000000a58220007a
:103200000002eb008001eb0032072000914a280009
:10321000c05e2100b80602000000000000000600a9
:10322000f3408000324180000000eb00214180002b
:1032300004418000810f52000500320002816900c4
:1032400002f0a7000201ea000200ea004f00de00df
:1032500011418000e18f500001003a000000eb00b6
:103260002008f8002408f9001e08f8002608f900d4
:10327000000006000200fa00889fbe008a9fbe0080
:103280008000eb00b1bf9f00000478008004eb00d9
:103290000005eb001b002000010037008b047800c4
:1032a000180190008a017800ea8057001800780021
:1032b0005211020000000000e10f5000f7ff3a0039
:1032c0000900e00002003a00280090001008e80021
:1032d0003fb897000000e800b0bf9f00f0ff370044
:1032e0000200fa00889fbe008a9fbe00000478009a
:1032f0000005eb008004eb001b00200002003700fb
:10330000800478000b05780018019000ea805700cf
:1033100018007800c012020000000000e10f500009
:10332000f9ff3a003fb89700890f5000f4ff3a00c8
:103330000a00e00002003a00a80090009108e800ae
:103340008004e800f0ff3700889fbe008a9fbe001f
:103350008c1f78000006780060002000b01d02007d
:1033600000000000000478000041eb002100200074
:10337000100020001e11020000000000000c780068
:103380000a0120001a049800c0c9210020049800f6
:1033900060002000b01d02000000000080047800e2
:1033a000980c78008005eb009b04980020ca21004f
:1033b000a00498008002eb000c02780088017800dd
:1033c00032072000c141280000972100b806020002
:1033d000000000006022b800890178003207200058
:1033e00041422800a0932100b8060200000000001e
:1033f00060002000b01d0200000000000004780002
:103400000041eb0021002000100020001e110200ee
:1034100000000000000c78001b04980040ca210046
:103420002004980060002000b01d02000000000091
:1034300080047800980c78009a049800e0c9210074
:10344000a00498006022b8008801780032072000ac
:10345000c142280000972100b806020000000000c9
:103460008002eb000c02780089017800320720000e
:1034700041432800a0932100b8060200000000008c
:1034800060002000b01d0200000000000004780071
:103490000041eb0021002000500020001e1102001e
:1034a00000000000000c78001a04980060ca210097
:1034b0002004980060002000b01d02000000000001
:1034c00080047800980c78009a04980000ca2100c3
:1034d000a00498006022b80088017800320720001c
:1034e000c1432800a0932100b8060200000000009c
:1034f0006022b8008901780032072000414428008a
:1035000000972100b8060200000000004f06780076
:103510004f05be004f04be0000000600889fbe009d
:10352000c3ca210064ca2100040478008303780020
:103530008000eb0010002000c6c921008004eb00d1
:1035400025ca21000181400066017900d30f510096
:1035500001003a000900780001814000e62b790063
:1035600065017900d80f510001003a000900780088
:1035700001814000652a79008100e800e38f500056
:10358000f0ff3a004f04be00000006002000fa00e1
:1035900003fe2f0083814700c44428000f00090068
:1035a000b419780080017800811978008000eb0060
:1035b000811978008119780082197800e2fd2f00c6
:1035c0000f0141008002b00083007800d21878001b
:1035d000808f5000fdff3a000002200003004000f1
:1035e0002102800001187800930180000318780000
:1035f000a4018000041878000018eb000080fa0095
:1036000000000600000006000421ef000021ef008a
:10361000f07c200010088800f0ff2800a400b6000d
:1036200000c0a000200588008460a9009460a80064
:103630000481a80004a1a90005e1a800000006007b
:10364000041b02000000000000408000900778008a
:103650004f007800f04188003400f9003200f90092
:103660004400f9005400f9003600f9004f077800d3
:103670004f06be004f05be004f04be004f03be0004
:103680004f02be004f01be004f00be004200f900d5
:10369000000006001000200000000600f0f12f00de
:1036a0004200b6000050a000100288000000000098
:1036b000000000003e28ec00000006003e08ed007f
:1036c000f041880003003a00f0f12f004220b600dc
:1036d0000000000000000600889fbe00f8f72f00e1
:1036e000a9002000201780004700de000080ea00cb
:1036f000610060004700dd00221780008200640046
:10370000810070002117880009007800260a020055
:1037100000000000f3ff3700889fbe00f8fd2f0077
:1037200029032000201780004500de000080ea0009
:10373000610060004500dd00221780008200640007
:10374000810070002117880009007800260a020015
:1037500000000000f3ff37006583200044002000d4
:103760008001eb0002082000c1462800c0b82100fb
:10377000b8060200000000008583200054002000ed
:103780008001eb000208200071472800c0b621002c
:10379000b806020000000000a041800014070200eb
:1037a0000000000000000600001d020000000000f4
:1037b00000000600fcff07004583200034002000c5
:1037c0008001eb000208200021482800c0ba210037
:1037d000b80602000000000092080200000000008d
:1037e0000000eb000000060000000600f0f12f00d2
:1037f0004200b6000050a000100288000000000047
:1038000000000000ffff37000400fa00889fbe00a0
:103810008a9fbe008c9fbe00800478000004eb00ed
:103820007a4429003b002000bc712700edff2f00e7
:103830000100370018002000b00720000100200020
:1038400080bf9f0091bf9f000fb897009fb897005f
:103850000000450081804d0080bf9f0091bf9f0008
:103860000fb897009fb89700d2ff2f00028ab900c7
:10387000800152000200b8008180410080bf9f009b
:1038800091bf9f000fb897009fb89700720020006b
:1038900003002000900302000000000080bf9f0092
:1038a00091bf9f000fb897009fb897008c0f5000f2
:1038b0008d8f5800dfff3a000800e000deff3a007d
:1038c0004e1b02000000000010002000800c780059
:1038d0005e1b020000000000d7ff370000027800e6
:1038e0008002eb000384200032072000014b2800f7
:1038f00040c02100b80602000000000000000600e1
:103900000042800000f0a7000000ea000000ea008a
:103910004f00de004028ef0000000600e4004000f9
:10392000110098000081eb002200980031009800ff
:10393000410098000008eb00000006008000eb004a
:1039400041009800000006001001900092009800cd
:10395000a2019000a3009800a2019000910198009c
:1039600021019800c00098001008e800000006003f
:1039700011027800e10f420002003a00c0019000fd
:1039800006003700e40140000100370082017800a2
:1039900013019000920f5200fcff310013019000c0
:1039a0009200980021019800a300980091019800ce
:1039b000c00098001008e80000000600c000900059
:1039c00010019000a00190002301980020019000b8
:1039d000900190001301980011019000800f510098
:1039e00002003a0022019000920098000001eb00d2
:1039f000420098009108e9001100780000000600dc
:103a0000e0a2a900e0e2a900e4a2a900e4e2a80083
:103a100000000600881f7800180020000044dd0028
:103a20000100e000070032004e1b02000000000011
:103a300008007800ca22b7005e1b020000000000e8
:103a4000080037004e1b0200000000000884ea0056
:103a50005016800008046000581688005e1b0200a3
:103a6000000000004f04780000000600881f780066
:103a7000180020000044dd004e1b02000000000082
:103a80005116800008806000050032000884ea00ba
:103a900050168000080460005816880002003700a5
:103aa00008007800ca22b7005e1b02000000000078
:103ab0004f047800000006004200f800801f7800e4
:103ac0000002200010028800811f7800829fbe0043
:103ad000849fbe00869fbe00889fbe008a9fbe0056
:103ae0008c9fbe008e1f78003600f8005400f8004e
:103af0004400f8003200f8003400f800f041800083
:103b0000801f7800004080000f0878008c0a0200b7
:103b10000000000000408000900778004f0078000f
:103b2000f04188003400f9003200f9004400f90047
:103b30005400f9003600f9004f0778004f06be0028
:103b40004f05be004f04be004f03be004f02be0033
:103b50004f01be004f00be004200f9000000060009
:103b6000889fbe00000478000808a300020032000d
:103b70000800a1000884e800d2080200000000004c
:103b80003c08e20003003a00408420000000a1004d
:103b9000e0418800d0418000000444008004eb0034
:103ba000d13f2100810f540005003e00880f5000d6
:103bb000030031003c08b40080047800d84188003c
:103bc0009e09020000000000090078004f04be00ba
:103bd00000000600000006003a28ef000000060082
:103be000d0418000e13f210000805000000006002d
:103bf0005008800081418000e48f500007003600ab
:103c0000914180008100500072418000810f51007d
:103c10000400310071418800020037008100e80093
:103c20008141880090418800000006000001780072
:103c30001021ef001221ef000621ef000a21ef0012
:103c40008001eb0000402200410f2000ae03020083
:103c500000000000600888000ea1ef00f0ff2800bf
:103c6000a600b60000d0a0003005880084e0a900be
:103c700094e0a80011e1a80013e1a80000000600ec
:020000040000fa
:103c80004208000000140000800000003a08000014
:103c900004000000800000003e0800000200000058
:103ca00082000000ef000000421c00005a000000eb
:103cb00080000000000800001e00000080000000de
:103cc0009c1c000018000000800000001e0800007e
:103cd000100000008000000040080000020000000a
:103ce000800000002e080000060000008000000098
:103cf0003408000006000000800000000000000002
:020000040000fa
:020000040001f9
:0457f000ffff0000b7
:020000040000fa
:020000040001f9
:0457f400ffff0000b3
:020000040000fa
:020000040001f9
:0457f800bfff0000ef
:020000040000fa
:020000040001f9
:0457fc00ff7e00002c
:00000001FF
